{
  "contractName": "DEXswapFeeSetter",
  "abi": [
    {
      "inputs": [
        {
          "internalType": "address",
          "name": "_owner",
          "type": "address"
        },
        {
          "internalType": "address",
          "name": "_factory",
          "type": "address"
        }
      ],
      "payable": false,
      "stateMutability": "nonpayable",
      "type": "constructor"
    },
    {
      "constant": true,
      "inputs": [],
      "name": "factory",
      "outputs": [
        {
          "internalType": "contract IDEXswapFactory",
          "name": "",
          "type": "address"
        }
      ],
      "payable": false,
      "stateMutability": "view",
      "type": "function"
    },
    {
      "constant": true,
      "inputs": [],
      "name": "owner",
      "outputs": [
        {
          "internalType": "address",
          "name": "",
          "type": "address"
        }
      ],
      "payable": false,
      "stateMutability": "view",
      "type": "function"
    },
    {
      "constant": true,
      "inputs": [
        {
          "internalType": "address",
          "name": "",
          "type": "address"
        }
      ],
      "name": "pairOwners",
      "outputs": [
        {
          "internalType": "address",
          "name": "",
          "type": "address"
        }
      ],
      "payable": false,
      "stateMutability": "view",
      "type": "function"
    },
    {
      "constant": false,
      "inputs": [
        {
          "internalType": "address",
          "name": "newOwner",
          "type": "address"
        }
      ],
      "name": "transferOwnership",
      "outputs": [],
      "payable": false,
      "stateMutability": "nonpayable",
      "type": "function"
    },
    {
      "constant": false,
      "inputs": [
        {
          "internalType": "address",
          "name": "pair",
          "type": "address"
        },
        {
          "internalType": "address",
          "name": "newOwner",
          "type": "address"
        }
      ],
      "name": "transferPairOwnership",
      "outputs": [],
      "payable": false,
      "stateMutability": "nonpayable",
      "type": "function"
    },
    {
      "constant": false,
      "inputs": [
        {
          "internalType": "address",
          "name": "feeTo",
          "type": "address"
        }
      ],
      "name": "setFeeTo",
      "outputs": [],
      "payable": false,
      "stateMutability": "nonpayable",
      "type": "function"
    },
    {
      "constant": false,
      "inputs": [
        {
          "internalType": "address",
          "name": "feeToSetter",
          "type": "address"
        }
      ],
      "name": "setFeeToSetter",
      "outputs": [],
      "payable": false,
      "stateMutability": "nonpayable",
      "type": "function"
    },
    {
      "constant": false,
      "inputs": [
        {
          "internalType": "uint8",
          "name": "protocolFeeDenominator",
          "type": "uint8"
        }
      ],
      "name": "setProtocolFee",
      "outputs": [],
      "payable": false,
      "stateMutability": "nonpayable",
      "type": "function"
    },
    {
      "constant": false,
      "inputs": [
        {
          "internalType": "address",
          "name": "pair",
          "type": "address"
        },
        {
          "internalType": "uint32",
          "name": "swapFee",
          "type": "uint32"
        }
      ],
      "name": "setSwapFee",
      "outputs": [],
      "payable": false,
      "stateMutability": "nonpayable",
      "type": "function"
    }
  ],
  "bytecode": "0x608060405234801561001057600080fd5b506040516106a43803806106a48339818101604052604081101561003357600080fd5b508051602090910151600080546001600160a01b039384166001600160a01b0319918216179091556002805493909216921691909117905561062a8061007a6000396000f3fe608060405234801561001057600080fd5b50600436106100935760003560e01c8063a2e74af611610066578063a2e74af614610136578063a6dab93f1461015c578063c45a01551461018a578063f2fde38b14610192578063f46901ed146101b857610093565b806317c06b34146100985780634e91f811146100da5780638da5cb5b146100fc5780639e68ceb814610104575b600080fd5b6100be600480360360208110156100ae57600080fd5b50356001600160a01b03166101de565b604080516001600160a01b039092168252519081900360200190f35b6100fa600480360360208110156100f057600080fd5b503560ff166101f9565b005b6100be6102b0565b6100fa6004803603604081101561011a57600080fd5b5080356001600160a01b0316906020013563ffffffff166102bf565b6100fa6004803603602081101561014c57600080fd5b50356001600160a01b03166103a6565b6100fa6004803603604081101561017257600080fd5b506001600160a01b0381358116916020013516610441565b6100be6104bc565b6100fa600480360360208110156101a857600080fd5b50356001600160a01b03166104cb565b6100fa600480360360208110156101ce57600080fd5b50356001600160a01b031661053a565b6001602052600090815260409020546001600160a01b031681565b6000546001600160a01b03163314610246576040805162461bcd60e51b815260206004820152601b60248201526000805160206105d6833981519152604482015290519081900360640190fd5b60025460408051634e91f81160e01b815260ff8416600482015290516001600160a01b0390921691634e91f8119160248082019260009290919082900301818387803b15801561029557600080fd5b505af11580156102a9573d6000803e3d6000fd5b5050505050565b6000546001600160a01b031681565b6000546001600160a01b03163314806102f157506001600160a01b038281166000908152600160205260409020541633145b610330576040805162461bcd60e51b815260206004820152601b60248201526000805160206105d6833981519152604482015290519081900360640190fd5b600254604080516313cd19d760e31b81526001600160a01b03858116600483015263ffffffff8516602483015291519190921691639e68ceb891604480830192600092919082900301818387803b15801561038a57600080fd5b505af115801561039e573d6000803e3d6000fd5b505050505050565b6000546001600160a01b031633146103f3576040805162461bcd60e51b815260206004820152601b60248201526000805160206105d6833981519152604482015290519081900360640190fd5b60025460408051635173a57b60e11b81526001600160a01b0384811660048301529151919092169163a2e74af691602480830192600092919082900301818387803b15801561029557600080fd5b6000546001600160a01b0316331461048e576040805162461bcd60e51b815260206004820152601b60248201526000805160206105d6833981519152604482015290519081900360640190fd5b6001600160a01b03918216600090815260016020526040902080546001600160a01b03191691909216179055565b6002546001600160a01b031681565b6000546001600160a01b03163314610518576040805162461bcd60e51b815260206004820152601b60248201526000805160206105d6833981519152604482015290519081900360640190fd5b600080546001600160a01b0319166001600160a01b0392909216919091179055565b6000546001600160a01b03163314610587576040805162461bcd60e51b815260206004820152601b60248201526000805160206105d6833981519152604482015290519081900360640190fd5b6002546040805163f46901ed60e01b81526001600160a01b0384811660048301529151919092169163f46901ed91602480830192600092919082900301818387803b15801561029557600080fdfe444558737761704665655365747465723a20464f5242494444454e0000000000a265627a7a723158202a9e5234267cf287d1f937cf6dbfbbec1a00ddd6d36b54ef5b61798111a8dc0764736f6c63430005100032",
  "source": "// SPDX-License-Identifier: GPL-3.0\npragma solidity =0.5.16;\n\nimport './interfaces/IDEXswapFactory.sol';\n\ncontract DEXswapFeeSetter {\n    address public owner;\n    mapping(address => address) public pairOwners;\n    IDEXswapFactory public factory;\n  \n    constructor(address _owner, address _factory) public {\n        owner = _owner;\n        factory = IDEXswapFactory(_factory);\n    }\n\n    function transferOwnership(address newOwner) external {\n        require(msg.sender == owner, 'DEXswapFeeSetter: FORBIDDEN');\n        owner = newOwner;\n    }\n    \n    function transferPairOwnership(address pair, address newOwner) external {\n        require(msg.sender == owner, 'DEXswapFeeSetter: FORBIDDEN');\n        pairOwners[pair] = newOwner;\n    }\n\n    function setFeeTo(address feeTo) external {\n        require(msg.sender == owner, 'DEXswapFeeSetter: FORBIDDEN');\n        factory.setFeeTo(feeTo);\n    }\n\n    function setFeeToSetter(address feeToSetter) external {\n        require(msg.sender == owner, 'DEXswapFeeSetter: FORBIDDEN');\n        factory.setFeeToSetter(feeToSetter);\n    }\n    \n    function setProtocolFee(uint8 protocolFeeDenominator) external {\n        require(msg.sender == owner, 'DEXswapFeeSetter: FORBIDDEN');\n        factory.setProtocolFee(protocolFeeDenominator);\n    }\n    \n    function setSwapFee(address pair, uint32 swapFee) external {\n        require((msg.sender == owner) || ((msg.sender == pairOwners[pair])), 'DEXswapFeeSetter: FORBIDDEN');\n        factory.setSwapFee(pair, swapFee);\n    }\n}\n",
  "sourcePath": "/mnt/d/DxSwap/All-Contract/DEXSWAP/dexswap-core/contracts/DEXswapFeeSetter.sol",
  "compiler": {
    "name": "solc",
    "version": "0.5.16+commit.9c3226ce.Emscripten.clang"
  },
  "schemaVersion": "3.3.4",
  "updatedAt": "2021-05-31T09:28:50.628Z",
  "devdoc": {
    "methods": {}
  },
  "userdoc": {
    "methods": {}
  }
}