{
  "contractName": "DEXswapFactory",
  "abi": [
    {
      "inputs": [
        {
          "internalType": "address",
          "name": "_feeToSetter",
          "type": "address"
        }
      ],
      "payable": false,
      "stateMutability": "nonpayable",
      "type": "constructor"
    },
    {
      "anonymous": false,
      "inputs": [
        {
          "indexed": true,
          "internalType": "address",
          "name": "token0",
          "type": "address"
        },
        {
          "indexed": true,
          "internalType": "address",
          "name": "token1",
          "type": "address"
        },
        {
          "indexed": false,
          "internalType": "address",
          "name": "pair",
          "type": "address"
        },
        {
          "indexed": false,
          "internalType": "uint256",
          "name": "",
          "type": "uint256"
        }
      ],
      "name": "PairCreated",
      "type": "event"
    },
    {
      "constant": true,
      "inputs": [],
      "name": "INIT_CODE_PAIR_HASH",
      "outputs": [
        {
          "internalType": "bytes32",
          "name": "",
          "type": "bytes32"
        }
      ],
      "payable": false,
      "stateMutability": "view",
      "type": "function"
    },
    {
      "constant": true,
      "inputs": [
        {
          "internalType": "uint256",
          "name": "",
          "type": "uint256"
        }
      ],
      "name": "allPairs",
      "outputs": [
        {
          "internalType": "address",
          "name": "",
          "type": "address"
        }
      ],
      "payable": false,
      "stateMutability": "view",
      "type": "function"
    },
    {
      "constant": true,
      "inputs": [],
      "name": "feeTo",
      "outputs": [
        {
          "internalType": "address",
          "name": "",
          "type": "address"
        }
      ],
      "payable": false,
      "stateMutability": "view",
      "type": "function"
    },
    {
      "constant": true,
      "inputs": [],
      "name": "feeToSetter",
      "outputs": [
        {
          "internalType": "address",
          "name": "",
          "type": "address"
        }
      ],
      "payable": false,
      "stateMutability": "view",
      "type": "function"
    },
    {
      "constant": true,
      "inputs": [
        {
          "internalType": "address",
          "name": "",
          "type": "address"
        },
        {
          "internalType": "address",
          "name": "",
          "type": "address"
        }
      ],
      "name": "getPair",
      "outputs": [
        {
          "internalType": "address",
          "name": "",
          "type": "address"
        }
      ],
      "payable": false,
      "stateMutability": "view",
      "type": "function"
    },
    {
      "constant": true,
      "inputs": [],
      "name": "protocolFeeDenominator",
      "outputs": [
        {
          "internalType": "uint8",
          "name": "",
          "type": "uint8"
        }
      ],
      "payable": false,
      "stateMutability": "view",
      "type": "function"
    },
    {
      "constant": true,
      "inputs": [],
      "name": "allPairsLength",
      "outputs": [
        {
          "internalType": "uint256",
          "name": "",
          "type": "uint256"
        }
      ],
      "payable": false,
      "stateMutability": "view",
      "type": "function"
    },
    {
      "constant": false,
      "inputs": [
        {
          "internalType": "address",
          "name": "tokenA",
          "type": "address"
        },
        {
          "internalType": "address",
          "name": "tokenB",
          "type": "address"
        }
      ],
      "name": "createPair",
      "outputs": [
        {
          "internalType": "address",
          "name": "pair",
          "type": "address"
        }
      ],
      "payable": false,
      "stateMutability": "nonpayable",
      "type": "function"
    },
    {
      "constant": false,
      "inputs": [
        {
          "internalType": "address",
          "name": "_feeTo",
          "type": "address"
        }
      ],
      "name": "setFeeTo",
      "outputs": [],
      "payable": false,
      "stateMutability": "nonpayable",
      "type": "function"
    },
    {
      "constant": false,
      "inputs": [
        {
          "internalType": "address",
          "name": "_feeToSetter",
          "type": "address"
        }
      ],
      "name": "setFeeToSetter",
      "outputs": [],
      "payable": false,
      "stateMutability": "nonpayable",
      "type": "function"
    },
    {
      "constant": false,
      "inputs": [
        {
          "internalType": "uint8",
          "name": "_protocolFeeDenominator",
          "type": "uint8"
        }
      ],
      "name": "setProtocolFee",
      "outputs": [],
      "payable": false,
      "stateMutability": "nonpayable",
      "type": "function"
    },
    {
      "constant": false,
      "inputs": [
        {
          "internalType": "address",
          "name": "_pair",
          "type": "address"
        },
        {
          "internalType": "uint32",
          "name": "_swapFee",
          "type": "uint32"
        }
      ],
      "name": "setSwapFee",
      "outputs": [],
      "payable": false,
      "stateMutability": "nonpayable",
      "type": "function"
    }
  ],
  "bytecode": "0x60806040526001805460ff60a01b1916600960a01b17905534801561002357600080fd5b50604051612fba380380612fba8339818101604052602081101561004657600080fd5b5051600180546001600160a01b0319166001600160a01b03909216919091179055612f44806100766000396000f3fe608060405234801561001057600080fd5b50600436106100b45760003560e01c80635855a25a116100715780635855a25a1461015c5780639e68ceb814610164578063a2e74af614610196578063c9c65396146101bc578063e6a43905146101ea578063f46901ed14610218576100b4565b8063017e7e58146100b9578063094b7415146100dd5780631e3dd18b146100e55780632ff7042a146101025780634e91f81114610120578063574f2ba314610142575b600080fd5b6100c161023e565b604080516001600160a01b039092168252519081900360200190f35b6100c161024d565b6100c1600480360360208110156100fb57600080fd5b503561025c565b61010a610283565b6040805160ff9092168252519081900360200190f35b6101406004803603602081101561013657600080fd5b503560ff16610293565b005b61014a610366565b60408051918252519081900360200190f35b61014a61036c565b6101406004803603604081101561017a57600080fd5b5080356001600160a01b0316906020013563ffffffff166103ff565b610140600480360360208110156101ac57600080fd5b50356001600160a01b03166104c3565b6100c1600480360360408110156101d257600080fd5b506001600160a01b0381358116916020013516610540565b6100c16004803603604081101561020057600080fd5b506001600160a01b0381358116916020013516610862565b6101406004803603602081101561022e57600080fd5b50356001600160a01b0316610888565b6000546001600160a01b031681565b6001546001600160a01b031681565b6003818154811061026957fe5b6000918252602090912001546001600160a01b0316905081565b600154600160a01b900460ff1681565b6001546001600160a01b031633146102ee576040805162461bcd60e51b81526020600482015260196024820152782222ac39bbb0b82330b1ba37b93c9d102327a92124a22222a760391b604482015290519081900360640190fd5b60008160ff1611610346576040805162461bcd60e51b815260206004820152601d60248201527f44455873776170466163746f72793a20464f5242494444454e5f464545000000604482015290519081900360640190fd5b6001805460ff909216600160a01b0260ff60a01b19909216919091179055565b60035490565b60405161037b60208201610905565b6020820181038252601f19601f820116604052506040516020018082805190602001908083835b602083106103c15780518252601f1990920191602091820191016103a2565b6001836020036101000a0380198251168184511680821785525050505050509050019150506040516020818303038152906040528051906020012081565b6001546001600160a01b0316331461045a576040805162461bcd60e51b81526020600482015260196024820152782222ac39bbb0b82330b1ba37b93c9d102327a92124a22222a760391b604482015290519081900360640190fd5b6040805163d6d788c360e01b815263ffffffff8316600482015290516001600160a01b0384169163d6d788c391602480830192600092919082900301818387803b1580156104a757600080fd5b505af11580156104bb573d6000803e3d6000fd5b505050505050565b6001546001600160a01b0316331461051e576040805162461bcd60e51b81526020600482015260196024820152782222ac39bbb0b82330b1ba37b93c9d102327a92124a22222a760391b604482015290519081900360640190fd5b600180546001600160a01b0319166001600160a01b0392909216919091179055565b6000816001600160a01b0316836001600160a01b031614156105935760405162461bcd60e51b8152600401808060200182810382526023815260200180612eed6023913960400191505060405180910390fd5b600080836001600160a01b0316856001600160a01b0316106105b65783856105b9565b84845b90925090506001600160a01b038216610619576040805162461bcd60e51b815260206004820152601c60248201527f44455873776170466163746f72793a205a45524f5f4144445245535300000000604482015290519081900360640190fd5b6001600160a01b03828116600090815260026020908152604080832085851684529091529020541615610693576040805162461bcd60e51b815260206004820152601b60248201527f44455873776170466163746f72793a20504149525f4558495354530000000000604482015290519081900360640190fd5b6060604051806020016106a590610905565b6020820181038252601f19601f8201166040525090506000838360405160200180836001600160a01b03166001600160a01b031660601b8152601401826001600160a01b03166001600160a01b031660601b815260140192505050604051602081830303815290604052805190602001209050808251602084016000f56040805163485cc95560e01b81526001600160a01b038781166004830152868116602483015291519297509087169163485cc9559160448082019260009290919082900301818387803b15801561077857600080fd5b505af115801561078c573d6000803e3d6000fd5b505050506001600160a01b0384811660008181526002602081815260408084208987168086529083528185208054978d166001600160a01b031998891681179091559383528185208686528352818520805488168517905560038054600181018255958190527fc2575a0e9e593c00f959f8c92f12db2869c3395a3b0502d05e2516446f71f85b90950180549097168417909655925483519283529082015281517f0d3648bd0f6ba80134a33ba9275ac585d9d315f0ad8355cddefde31afa28d0e9929181900390910190a35050505092915050565b60026020908152600092835260408084209091529082529020546001600160a01b031681565b6001546001600160a01b031633146108e3576040805162461bcd60e51b81526020600482015260196024820152782222ac39bbb0b82330b1ba37b93c9d102327a92124a22222a760391b604482015290519081900360640190fd5b600080546001600160a01b0319166001600160a01b0392909216919091179055565b6125da806109138339019056fe6080604052600c805463ffffffff191660191790556001600d5534801561002557600080fd5b506040514690806052612588823960408051918290036052018220828201825260078352660446578537761760cc1b6020938401528151808301835260018152603160f81b908401528151808401919091527fd0a4cf1703fb3ddbaac1b4bb6c46ea81e273206f8c0ce8604c5d28f7f61127eb818301527fc89efdaa54c0f20c7adf612882df0950f5a951637e0307cdcb4c672f298b8bc6606082015260808101949094523060a0808601919091528151808603909101815260c09094019052825192019190912060035550600580546001600160a01b03191633179055612476806101126000396000f3fe608060405234801561001057600080fd5b50600436106101cf5760003560e01c80636a62784211610104578063ba9a7a56116100a2578063d505accf11610071578063d505accf14610583578063d6d788c3146105d4578063dd62ed3e146105f7578063fff6cae914610625576101cf565b8063ba9a7a5614610545578063bc25cf771461054d578063c45a015514610573578063d21220a71461057b576101cf565b80637ecebe00116100de5780637ecebe00146104ac57806389afcb44146104d257806395d89b4114610511578063a9059cbb14610519576101cf565b80636a6278421461045857806370a082311461047e5780637464fc3d146104a4576101cf565b806330adf81f11610171578063485cc9551161014b578063485cc955146103f957806354cf2aeb146104275780635909c0d5146104485780635a3d549314610450576101cf565b806330adf81f146103cb578063313ce567146103d35780633644e515146103f1576101cf565b8063095ea7b3116101ad578063095ea7b3146103175780630dfe16811461035757806318160ddd1461037b57806323b872dd14610395576101cf565b8063022c0d9f146101d457806306fdde03146102625780630902f1ac146102df575b600080fd5b610260600480360360808110156101ea57600080fd5b8135916020810135916001600160a01b03604083013516919081019060808101606082013564010000000081111561022157600080fd5b82018360208201111561023357600080fd5b8035906020019184600183028401116401000000008311171561025557600080fd5b50909250905061062d565b005b61026a610b88565b6040805160208082528351818301528351919283929083019185019080838360005b838110156102a457818101518382015260200161028c565b50505050905090810190601f1680156102d15780820380516001836020036101000a031916815260200191505b509250505060405180910390f35b6102e7610bab565b604080516001600160701b03948516815292909316602083015263ffffffff168183015290519081900360600190f35b6103436004803603604081101561032d57600080fd5b506001600160a01b038135169060200135610bd5565b604080519115158252519081900360200190f35b61035f610bec565b604080516001600160a01b039092168252519081900360200190f35b610383610bfb565b60408051918252519081900360200190f35b610343600480360360608110156103ab57600080fd5b506001600160a01b03813581169160208101359091169060400135610c01565b610383610c9b565b6103db610cbf565b6040805160ff9092168252519081900360200190f35b610383610cc4565b6102606004803603604081101561040f57600080fd5b506001600160a01b0381358116916020013516610cca565b61042f610d50565b6040805163ffffffff9092168252519081900360200190f35b610383610d5c565b610383610d62565b6103836004803603602081101561046e57600080fd5b50356001600160a01b0316610d68565b6103836004803603602081101561049457600080fd5b50356001600160a01b031661106a565b61038361107c565b610383600480360360208110156104c257600080fd5b50356001600160a01b0316611082565b6104f8600480360360208110156104e857600080fd5b50356001600160a01b0316611094565b6040805192835260208301919091528051918290030190f35b61026a61143c565b6103436004803603604081101561052f57600080fd5b506001600160a01b03813516906020013561145c565b610383611469565b6102606004803603602081101561056357600080fd5b50356001600160a01b031661146f565b61035f6115dc565b61035f6115eb565b610260600480360360e081101561059957600080fd5b506001600160a01b03813581169160208101359091169060408101359060608101359060ff6080820135169060a08101359060c001356115fa565b610260600480360360208110156105ea57600080fd5b503563ffffffff166117ff565b6103836004803603604081101561060d57600080fd5b506001600160a01b03813581169160200135166118d0565b6102606118ed565b600d5460011461067a576040805162461bcd60e51b81526020600482015260136024820152721111561cddd85c14185a5c8e881313d0d2d151606a1b604482015290519081900360640190fd5b6000600d558415158061068d5750600084115b6106c85760405162461bcd60e51b81526004018080602001828103825260278152602001806123ce6027913960400191505060405180910390fd5b6000806106d3610bab565b5091509150816001600160701b0316871080156106f85750806001600160701b031686105b6107335760405162461bcd60e51b81526004018080602001828103825260238152602001806123f56023913960400191505060405180910390fd5b60065460075460009182916001600160a01b039182169190811690891682148015906107715750806001600160a01b0316896001600160a01b031614155b6107c2576040805162461bcd60e51b815260206004820152601760248201527f44455873776170506169723a20494e56414c49445f544f000000000000000000604482015290519081900360640190fd5b8a156107d3576107d3828a8d611a51565b89156107e4576107e4818a8c611a51565b861561089f57886001600160a01b0316631e393656338d8d8c8c6040518663ffffffff1660e01b815260040180866001600160a01b03166001600160a01b03168152602001858152602001848152602001806020018281038252848482818152602001925080828437600081840152601f19601f8201169050808301925050509650505050505050600060405180830381600087803b15801561088657600080fd5b505af115801561089a573d6000803e3d6000fd5b505050505b604080516370a0823160e01b815230600482015290516001600160a01b038416916370a08231916024808301926020929190829003018186803b1580156108e557600080fd5b505afa1580156108f9573d6000803e3d6000fd5b505050506040513d602081101561090f57600080fd5b5051604080516370a0823160e01b815230600482015290519195506001600160a01b038316916370a0823191602480820192602092909190829003018186803b15801561095b57600080fd5b505afa15801561096f573d6000803e3d6000fd5b505050506040513d602081101561098557600080fd5b5051925060009150506001600160701b0385168a900383116109a85760006109b7565b89856001600160701b03160383035b9050600089856001600160701b03160383116109d45760006109e3565b89856001600160701b03160383035b905060008211806109f45750600081115b610a2f5760405162461bcd60e51b815260040180806020018281038252602681526020018061237e6026913960400191505060405180910390fd5b600c54600090610a6c90610a4e90859063ffffffff90811690611beb16565b610a608761271063ffffffff611beb16565b9063ffffffff611c4e16565b600c54909150600090610a8e90610a4e90859063ffffffff90811690611beb16565b9050610ac06305f5e100610ab46001600160701b038b8116908b1663ffffffff611beb16565b9063ffffffff611beb16565b610ad0838363ffffffff611beb16565b1015610b14576040805162461bcd60e51b815260206004820152600e60248201526d44455873776170506169723a204b60901b604482015290519081900360640190fd5b5050610b2284848888611c9e565b60408051838152602081018390528082018d9052606081018c905290516001600160a01b038b169133917fd78ad95fa46c994b6551d0da85fc275fe613ce37657fb8d5e3d130840159d8229181900360800190a350506001600d55505050505050505050565b604051806040016040528060078152602001660446578537761760cc1b81525081565b6008546001600160701b0380821692600160701b830490911691600160e01b900463ffffffff1690565b6000610be2338484611e65565b5060015b92915050565b6006546001600160a01b031681565b60005481565b6001600160a01b038316600090815260026020908152604080832033845290915281205460001914610c86576001600160a01b0384166000908152600260209081526040808320338452909152902054610c61908363ffffffff611c4e16565b6001600160a01b03851660009081526002602090815260408083203384529091529020555b610c91848484611ec7565b5060019392505050565b7f6e71edae12b1b97f4d1f60370fef10105fa2faae0126114a169c64845d6126c981565b601281565b60035481565b6005546001600160a01b03163314610d22576040805162461bcd60e51b81526020600482015260166024820152752222ac39bbb0b82830b4b91d102327a92124a22222a760511b604482015290519081900360640190fd5b600680546001600160a01b039384166001600160a01b03199182161790915560078054929093169116179055565b600c5463ffffffff1681565b60095481565b600a5481565b6000600d54600114610db7576040805162461bcd60e51b81526020600482015260136024820152721111561cddd85c14185a5c8e881313d0d2d151606a1b604482015290519081900360640190fd5b6000600d81905580610dc7610bab565b50600654604080516370a0823160e01b815230600482015290519395509193506000926001600160a01b03909116916370a08231916024808301926020929190829003018186803b158015610e1b57600080fd5b505afa158015610e2f573d6000803e3d6000fd5b505050506040513d6020811015610e4557600080fd5b5051600754604080516370a0823160e01b815230600482015290519293506000926001600160a01b03909216916370a0823191602480820192602092909190829003018186803b158015610e9857600080fd5b505afa158015610eac573d6000803e3d6000fd5b505050506040513d6020811015610ec257600080fd5b505190506000610ee1836001600160701b03871663ffffffff611c4e16565b90506000610efe836001600160701b03871663ffffffff611c4e16565b90506000610f0c8787611f81565b60005490915080610f4957610f356103e8610a60610f30878763ffffffff611beb16565b612159565b9850610f4460006103e86121ab565b610f98565b610f956001600160701b038916610f66868463ffffffff611beb16565b81610f6d57fe5b046001600160701b038916610f88868563ffffffff611beb16565b81610f8f57fe5b04612241565b98505b60008911610fd75760405162461bcd60e51b815260040180806020018281038252602a815260200180612418602a913960400191505060405180910390fd5b610fe18a8a6121ab565b610fed86868a8a611c9e565b811561101d57600854611019906001600160701b0380821691600160701b90041663ffffffff611beb16565b600b555b6040805185815260208101859052815133927f4c209b5fc8ad50758f13e2e1088ba56a560dff690a1c6fef26394f4c03821c4f928290030190a250506001600d5550949695505050505050565b60016020526000908152604090205481565b600b5481565b60046020526000908152604090205481565b600080600d546001146110e4576040805162461bcd60e51b81526020600482015260136024820152721111561cddd85c14185a5c8e881313d0d2d151606a1b604482015290519081900360640190fd5b6000600d819055806110f4610bab565b50600654600754604080516370a0823160e01b815230600482015290519496509294506001600160a01b039182169391169160009184916370a08231916024808301926020929190829003018186803b15801561115057600080fd5b505afa158015611164573d6000803e3d6000fd5b505050506040513d602081101561117a57600080fd5b5051604080516370a0823160e01b815230600482015290519192506000916001600160a01b038516916370a08231916024808301926020929190829003018186803b1580156111c857600080fd5b505afa1580156111dc573d6000803e3d6000fd5b505050506040513d60208110156111f257600080fd5b5051306000908152600160205260408120549192506112118888611f81565b60005490915080611228848763ffffffff611beb16565b8161122f57fe5b049a5080611243848663ffffffff611beb16565b8161124a57fe5b04995060008b11801561125d575060008a115b6112985760405162461bcd60e51b815260040180806020018281038252602a8152602001806123a4602a913960400191505060405180910390fd5b6112a23084612259565b6112ad878d8d611a51565b6112b8868d8c611a51565b604080516370a0823160e01b815230600482015290516001600160a01b038916916370a08231916024808301926020929190829003018186803b1580156112fe57600080fd5b505afa158015611312573d6000803e3d6000fd5b505050506040513d602081101561132857600080fd5b5051604080516370a0823160e01b815230600482015290519196506001600160a01b038816916370a0823191602480820192602092909190829003018186803b15801561137457600080fd5b505afa158015611388573d6000803e3d6000fd5b505050506040513d602081101561139e57600080fd5b505193506113ae85858b8b611c9e565b81156113de576008546113da906001600160701b0380821691600160701b90041663ffffffff611beb16565b600b555b604080518c8152602081018c905281516001600160a01b038f169233927fdccd412f0b1252819cb1fd330b93224ca42612892bb3f4f789976e6d81936496929081900390910190a35050505050505050506001600d81905550915091565b604051806040016040528060048152602001634445585360e01b81525081565b6000610be2338484611ec7565b6103e881565b600d546001146114bc576040805162461bcd60e51b81526020600482015260136024820152721111561cddd85c14185a5c8e881313d0d2d151606a1b604482015290519081900360640190fd5b6000600d55600654600754600854604080516370a0823160e01b815230600482015290516001600160a01b03948516949093169261156b9285928792611566926001600160701b03169185916370a0823191602480820192602092909190829003018186803b15801561152e57600080fd5b505afa158015611542573d6000803e3d6000fd5b505050506040513d602081101561155857600080fd5b50519063ffffffff611c4e16565b611a51565b600854604080516370a0823160e01b815230600482015290516115d2928492879261156692600160701b90046001600160701b0316916001600160a01b038616916370a0823191602480820192602092909190829003018186803b15801561152e57600080fd5b50506001600d5550565b6005546001600160a01b031681565b6007546001600160a01b031681565b42841015611647576040805162461bcd60e51b81526020600482015260156024820152741111561cddd85c115490cc8c0e8811561412549151605a1b604482015290519081900360640190fd5b6003546001600160a01b0380891660008181526004602090815260408083208054600180820190925582517f6e71edae12b1b97f4d1f60370fef10105fa2faae0126114a169c64845d6126c98186015280840196909652958d166060860152608085018c905260a085019590955260c08085018b90528151808603909101815260e08501825280519083012061190160f01b6101008601526101028501969096526101228085019690965280518085039096018652610142840180825286519683019690962095839052610162840180825286905260ff89166101828501526101a284018890526101c28401879052519193926101e280820193601f1981019281900390910190855afa158015611762573d6000803e3d6000fd5b5050604051601f1901519150506001600160a01b038116158015906117985750886001600160a01b0316816001600160a01b0316145b6117e9576040805162461bcd60e51b815260206004820152601f60248201527f4445587377617045524332303a20494e56414c49445f5349474e415455524500604482015290519081900360640190fd5b6117f4898989611e65565b505050505050505050565b6005546001600160a01b03163314611857576040805162461bcd60e51b81526020600482015260166024820152752222ac39bbb0b82830b4b91d102327a92124a22222a760511b604482015290519081900360640190fd5b6103e88163ffffffff1611156118b4576040805162461bcd60e51b815260206004820152601a60248201527f44455873776170506169723a20464f5242494444454e5f464545000000000000604482015290519081900360640190fd5b600c805463ffffffff191663ffffffff92909216919091179055565b600260209081526000928352604080842090915290825290205481565b600d5460011461193a576040805162461bcd60e51b81526020600482015260136024820152721111561cddd85c14185a5c8e881313d0d2d151606a1b604482015290519081900360640190fd5b6000600d55600654604080516370a0823160e01b81523060048201529051611a4a926001600160a01b0316916370a08231916024808301926020929190829003018186803b15801561198b57600080fd5b505afa15801561199f573d6000803e3d6000fd5b505050506040513d60208110156119b557600080fd5b5051600754604080516370a0823160e01b815230600482015290516001600160a01b03909216916370a0823191602480820192602092909190829003018186803b158015611a0257600080fd5b505afa158015611a16573d6000803e3d6000fd5b505050506040513d6020811015611a2c57600080fd5b50516008546001600160701b0380821691600160701b900416611c9e565b6001600d55565b604080518082018252601981527f7472616e7366657228616464726573732c75696e74323536290000000000000060209182015281516001600160a01b0385811660248301526044808301869052845180840390910181526064909201845291810180516001600160e01b031663a9059cbb60e01b1781529251815160009460609489169392918291908083835b60208310611afe5780518252601f199092019160209182019101611adf565b6001836020036101000a0380198251168184511680821785525050505050509050019150506000604051808303816000865af19150503d8060008114611b60576040519150601f19603f3d011682016040523d82523d6000602084013e611b65565b606091505b5091509150818015611b93575080511580611b935750808060200190516020811015611b9057600080fd5b50515b611be4576040805162461bcd60e51b815260206004820152601c60248201527f44455873776170506169723a205452414e534645525f4641494c454400000000604482015290519081900360640190fd5b5050505050565b6000811580611c0657505080820282828281611c0357fe5b04145b610be6576040805162461bcd60e51b815260206004820152601460248201527364732d6d6174682d6d756c2d6f766572666c6f7760601b604482015290519081900360640190fd5b80820382811115610be6576040805162461bcd60e51b815260206004820152601560248201527464732d6d6174682d7375622d756e646572666c6f7760581b604482015290519081900360640190fd5b6001600160701b038411801590611cbc57506001600160701b038311155b611d05576040805162461bcd60e51b815260206004820152601560248201527444455873776170506169723a204f564552464c4f5760581b604482015290519081900360640190fd5b60085463ffffffff42811691600160e01b90048116820390811615801590611d3557506001600160701b03841615155b8015611d4957506001600160701b03831615155b15611dba578063ffffffff16611d7785611d62866122f7565b6001600160e01b03169063ffffffff61230916565b600980546001600160e01b03929092169290920201905563ffffffff8116611da284611d62876122f7565b600a80546001600160e01b0392909216929092020190555b600880546dffffffffffffffffffffffffffff19166001600160701b03888116919091176dffffffffffffffffffffffffffff60701b1916600160701b8883168102919091176001600160e01b0316600160e01b63ffffffff871602179283905560408051848416815291909304909116602082015281517f1c411e9a96e071241c2f21f7726b17ae89e3cab4c78be50e062b03a9fffbbad1929181900390910190a1505050505050565b6001600160a01b03808416600081815260026020908152604080832094871680845294825291829020859055815185815291517f8c5be1e5ebec7d5bd14f71427d1e84f3dd0314c0f7b2291e5b200ac8c7c3b9259281900390910190a3505050565b6001600160a01b038316600090815260016020526040902054611ef0908263ffffffff611c4e16565b6001600160a01b038085166000908152600160205260408082209390935590841681522054611f25908263ffffffff61232e16565b6001600160a01b0380841660008181526001602090815260409182902094909455805185815290519193928716927fddf252ad1be2c89b69c2b068fc378daa952ba7f163c4a11628f55a4df523b3ef92918290030190a3505050565b600080600560009054906101000a90046001600160a01b03166001600160a01b031663017e7e586040518163ffffffff1660e01b815260040160206040518083038186803b158015611fd257600080fd5b505afa158015611fe6573d6000803e3d6000fd5b505050506040513d6020811015611ffc57600080fd5b5051600554604080516317fb821560e11b815290519293506000926001600160a01b0390921691632ff7042a91600480820192602092909190829003018186803b15801561204957600080fd5b505afa15801561205d573d6000803e3d6000fd5b505050506040513d602081101561207357600080fd5b5051600b546001600160a01b03841615801595509192509061214457801561213f5760006120b6610f306001600160701b0389811690891663ffffffff611beb16565b905060006120c383612159565b90508082111561213c5760006120f16120e2848463ffffffff611c4e16565b6000549063ffffffff611beb16565b905060006121188361210c8660ff8a1663ffffffff611beb16565b9063ffffffff61232e16565b9050600081838161212557fe5b04905080156121385761213888826121ab565b5050505b50505b612150565b8015612150576000600b555b50505092915050565b6000600382111561219c575080600160028204015b818110156121965780915060028182858161218557fe5b04018161218e57fe5b04905061216e565b506121a6565b81156121a6575060015b919050565b6000546121be908263ffffffff61232e16565b60009081556001600160a01b0383168152600160205260409020546121e9908263ffffffff61232e16565b6001600160a01b03831660008181526001602090815260408083209490945583518581529351929391927fddf252ad1be2c89b69c2b068fc378daa952ba7f163c4a11628f55a4df523b3ef9281900390910190a35050565b60008183106122505781612252565b825b9392505050565b6001600160a01b038216600090815260016020526040902054612282908263ffffffff611c4e16565b6001600160a01b038316600090815260016020526040812091909155546122af908263ffffffff611c4e16565b60009081556040805183815290516001600160a01b038516917fddf252ad1be2c89b69c2b068fc378daa952ba7f163c4a11628f55a4df523b3ef919081900360200190a35050565b6001600160701b0316600160701b0290565b60006001600160701b0382166001600160e01b0384168161232657fe5b049392505050565b80820182811015610be6576040805162461bcd60e51b815260206004820152601460248201527364732d6d6174682d6164642d6f766572666c6f7760601b604482015290519081900360640190fdfe44455873776170506169723a20494e53554646494349454e545f494e5055545f414d4f554e5444455873776170506169723a20494e53554646494349454e545f4c49515549444954595f4255524e454444455873776170506169723a20494e53554646494349454e545f4f55545055545f414d4f554e5444455873776170506169723a20494e53554646494349454e545f4c495155494449545944455873776170506169723a20494e53554646494349454e545f4c49515549444954595f4d494e544544a265627a7a7231582076bfb6d5f42b8ba87bb9df0e349bc574baf690b359d56adac95a833b6d56c69a64736f6c63430005100032454950373132446f6d61696e28737472696e67206e616d652c737472696e672076657273696f6e2c75696e7432353620636861696e49642c6164647265737320766572696679696e67436f6e74726163742944455873776170466163746f72793a204944454e544943414c5f414444524553534553a265627a7a7231582034a28425a988fca91aa12c0728d13783b17c49d0a10a302967bd0d71b227146664736f6c63430005100032",
  "source": "// SPDX-License-Identifier: GPL-3.0\npragma solidity =0.5.16;\n\nimport './interfaces/IDEXswapFactory.sol';\nimport './DEXswapPair.sol';\n\ncontract DEXswapFactory is IDEXswapFactory {\n    address public feeTo;\n    address public feeToSetter;\n    uint8 public protocolFeeDenominator = 9; // uses ~10% of each swap fee\n    bytes32 public constant INIT_CODE_PAIR_HASH = keccak256(abi.encodePacked(type(DEXswapPair).creationCode));\n\n    mapping(address => mapping(address => address)) public getPair;\n    address[] public allPairs;\n\n    event PairCreated(address indexed token0, address indexed token1, address pair, uint);\n\n    constructor(address _feeToSetter) public {\n        feeToSetter = _feeToSetter;\n    }\n\n    function allPairsLength() external view returns (uint) {\n        return allPairs.length;\n    }\n\n    function createPair(address tokenA, address tokenB) external returns (address pair) {\n        require(tokenA != tokenB, 'DEXswapFactory: IDENTICAL_ADDRESSES');\n        (address token0, address token1) = tokenA < tokenB ? (tokenA, tokenB) : (tokenB, tokenA);\n        require(token0 != address(0), 'DEXswapFactory: ZERO_ADDRESS');\n        require(getPair[token0][token1] == address(0), 'DEXswapFactory: PAIR_EXISTS'); // single check is sufficient\n        bytes memory bytecode = type(DEXswapPair).creationCode;\n        bytes32 salt = keccak256(abi.encodePacked(token0, token1));\n        assembly {\n            pair := create2(0, add(bytecode, 32), mload(bytecode), salt)\n        }\n        IDEXswapPair(pair).initialize(token0, token1);\n        getPair[token0][token1] = pair;\n        getPair[token1][token0] = pair; // populate mapping in the reverse direction\n        allPairs.push(pair);\n        emit PairCreated(token0, token1, pair, allPairs.length);\n    }\n\n    function setFeeTo(address _feeTo) external {\n        require(msg.sender == feeToSetter, 'DEXswapFactory: FORBIDDEN');\n        feeTo = _feeTo;\n    }\n\n    function setFeeToSetter(address _feeToSetter) external {\n        require(msg.sender == feeToSetter, 'DEXswapFactory: FORBIDDEN');\n        feeToSetter = _feeToSetter;\n    }\n    \n    function setProtocolFee(uint8 _protocolFeeDenominator) external {\n        require(msg.sender == feeToSetter, 'DEXswapFactory: FORBIDDEN');\n        require(_protocolFeeDenominator > 0, 'DEXswapFactory: FORBIDDEN_FEE');\n        protocolFeeDenominator = _protocolFeeDenominator;\n    }\n    \n    function setSwapFee(address _pair, uint32 _swapFee) external {\n        require(msg.sender == feeToSetter, 'DEXswapFactory: FORBIDDEN');\n        IDEXswapPair(_pair).setSwapFee(_swapFee);\n    }\n}\n",
  "sourcePath": "/mnt/d/DxSwap/All-Contract/DEXSWAP/dexswap-core/contracts/DEXswapFactory.sol",
  "compiler": {
    "name": "solc",
    "version": "0.5.16+commit.9c3226ce.Emscripten.clang"
  },
  "schemaVersion": "3.3.4",
  "updatedAt": "2021-05-31T09:50:31.312Z",
  "networkType": "ethereum",
  "devdoc": {
    "methods": {}
  },
  "userdoc": {
    "methods": {}
  }
}