{
  "contractName": "DEXswapFeeReceiver",
  "abi": [
    {
      "inputs": [
        {
          "internalType": "address",
          "name": "_owner",
          "type": "address"
        },
        {
          "internalType": "address",
          "name": "_factory",
          "type": "address"
        },
        {
          "internalType": "address",
          "name": "_WETH",
          "type": "address"
        },
        {
          "internalType": "address",
          "name": "_ethReceiver",
          "type": "address"
        },
        {
          "internalType": "address",
          "name": "_fallbackReceiver",
          "type": "address"
        }
      ],
      "payable": false,
      "stateMutability": "nonpayable",
      "type": "constructor"
    },
    {
      "payable": true,
      "stateMutability": "payable",
      "type": "fallback"
    },
    {
      "constant": true,
      "inputs": [],
      "name": "WETH",
      "outputs": [
        {
          "internalType": "address",
          "name": "",
          "type": "address"
        }
      ],
      "payable": false,
      "stateMutability": "view",
      "type": "function"
    },
    {
      "constant": true,
      "inputs": [],
      "name": "ethReceiver",
      "outputs": [
        {
          "internalType": "address",
          "name": "",
          "type": "address"
        }
      ],
      "payable": false,
      "stateMutability": "view",
      "type": "function"
    },
    {
      "constant": true,
      "inputs": [],
      "name": "factory",
      "outputs": [
        {
          "internalType": "contract IDEXswapFactory",
          "name": "",
          "type": "address"
        }
      ],
      "payable": false,
      "stateMutability": "view",
      "type": "function"
    },
    {
      "constant": true,
      "inputs": [],
      "name": "fallbackReceiver",
      "outputs": [
        {
          "internalType": "address",
          "name": "",
          "type": "address"
        }
      ],
      "payable": false,
      "stateMutability": "view",
      "type": "function"
    },
    {
      "constant": true,
      "inputs": [],
      "name": "owner",
      "outputs": [
        {
          "internalType": "address",
          "name": "",
          "type": "address"
        }
      ],
      "payable": false,
      "stateMutability": "view",
      "type": "function"
    },
    {
      "constant": false,
      "inputs": [
        {
          "internalType": "address",
          "name": "newOwner",
          "type": "address"
        }
      ],
      "name": "transferOwnership",
      "outputs": [],
      "payable": false,
      "stateMutability": "nonpayable",
      "type": "function"
    },
    {
      "constant": false,
      "inputs": [
        {
          "internalType": "address",
          "name": "_ethReceiver",
          "type": "address"
        },
        {
          "internalType": "address",
          "name": "_fallbackReceiver",
          "type": "address"
        }
      ],
      "name": "changeReceivers",
      "outputs": [],
      "payable": false,
      "stateMutability": "nonpayable",
      "type": "function"
    },
    {
      "constant": false,
      "inputs": [
        {
          "internalType": "contract IDEXswapPair[]",
          "name": "pairs",
          "type": "address[]"
        }
      ],
      "name": "takeProtocolFee",
      "outputs": [],
      "payable": false,
      "stateMutability": "nonpayable",
      "type": "function"
    }
  ],
  "bytecode": "0x608060405234801561001057600080fd5b5060405161117b38038061117b833981810160405260a081101561003357600080fd5b508051602082015160408301516060840151608090940151600080546001600160a01b039586166001600160a01b031991821617909155600180549486169482169490941790935560028054928516928416929092179091556003805494841694831694909417909355600480549290931691161790556110c2806100b96000396000f3fe60806040526004361061007b5760003560e01c8063c1f4381d1161004e578063c1f4381d14610155578063c45a015514610190578063f2269521146101a5578063f2fde38b146101ba5761007b565b80635cb9c4ec1461007d5780638da5cb5b146100fa578063ad5c46481461012b578063b988847214610140575b005b34801561008957600080fd5b5061007b600480360360208110156100a057600080fd5b8101906020810181356401000000008111156100bb57600080fd5b8201836020820111156100cd57600080fd5b803590602001918460208302840111640100000000831117156100ef57600080fd5b5090925090506101ed565b34801561010657600080fd5b5061010f610511565b604080516001600160a01b039092168252519081900360200190f35b34801561013757600080fd5b5061010f610520565b34801561014c57600080fd5b5061010f61052f565b34801561016157600080fd5b5061007b6004803603604081101561017857600080fd5b506001600160a01b038135811691602001351661053e565b34801561019c57600080fd5b5061010f6105cb565b3480156101b157600080fd5b5061010f6105da565b3480156101c657600080fd5b5061007b600480360360208110156101dd57600080fd5b50356001600160a01b03166105e9565b60005b8181101561050c57600083838381811061020657fe5b905060200201356001600160a01b03166001600160a01b0316630dfe16816040518163ffffffff1660e01b815260040160206040518083038186803b15801561024e57600080fd5b505afa158015610262573d6000803e3d6000fd5b505050506040513d602081101561027857600080fd5b50519050600084848481811061028a57fe5b905060200201356001600160a01b03166001600160a01b031663d21220a76040518163ffffffff1660e01b815260040160206040518083038186803b1580156102d257600080fd5b505afa1580156102e6573d6000803e3d6000fd5b505050506040513d60208110156102fc57600080fd5b5051905084848481811061030c57fe5b905060200201356001600160a01b03166001600160a01b031663a9059cbb86868681811061033657fe5b905060200201356001600160a01b031687878781811061035257fe5b604080516370a0823160e01b81523060048201529051602092830294909401356001600160a01b0316936370a08231935060248083019392829003018186803b15801561039e57600080fd5b505afa1580156103b2573d6000803e3d6000fd5b505050506040513d60208110156103c857600080fd5b5051604080516001600160e01b031960e086901b1681526001600160a01b03909316600484015260248301919091525160448083019260209291908290030181600087803b15801561041957600080fd5b505af115801561042d573d6000803e3d6000fd5b505050506040513d602081101561044357600080fd5b50600090508086868681811061045557fe5b6040805163226bf2d160e21b8152306004820152815160209390930294909401356001600160a01b0316936389afcb449350602480820193918290030181600087803b1580156104a457600080fd5b505af11580156104b8573d6000803e3d6000fd5b505050506040513d60408110156104ce57600080fd5b508051602090910151909250905081156104ec576104ec848361066a565b80156104fc576104fc838261066a565b5050600190920191506101f09050565b505050565b6000546001600160a01b031681565b6002546001600160a01b031681565b6003546001600160a01b031681565b6000546001600160a01b0316331461059d576040805162461bcd60e51b815260206004820152601d60248201527f4445587377617046656552656365697665723a20464f5242494444454e000000604482015290519081900360640190fd5b600380546001600160a01b039384166001600160a01b03199182161790915560048054929093169116179055565b6001546001600160a01b031681565b6004546001600160a01b031681565b6000546001600160a01b03163314610648576040805162461bcd60e51b815260206004820152601d60248201527f4445587377617046656552656365697665723a20464f5242494444454e000000604482015290519081900360640190fd5b600080546001600160a01b0319166001600160a01b0392909216919091179055565b6002546001600160a01b03838116911614156107015760025460408051632e1a7d4d60e01b81526004810184905290516001600160a01b0390921691632e1a7d4d9160248082019260009290919082900301818387803b1580156106cd57600080fd5b505af11580156106e1573d6000803e3d6000fd5b50506003546106fc92506001600160a01b031690508261074c565b610748565b6002546107219061071c9084906001600160a01b031661083f565b6108fe565b15610730576106fc8183610904565b6004546107489083906001600160a01b031683610cc9565b5050565b604080516000808252602082019092526001600160a01b0384169083906040518082805190602001908083835b602083106107985780518252601f199092019160209182019101610779565b6001836020036101000a03801982511681845116808217855250505050505090500191505060006040518083038185875af1925050503d80600081146107fa576040519150601f19603f3d011682016040523d82523d6000602084013e6107ff565b606091505b505090508061050c5760405162461bcd60e51b81526004018080602001828103825260238152602001806110416023913960400191505060405180910390fd5b600080600061084e8585610e33565b600154604080516bffffffffffffffffffffffff19606095861b811660208084019190915294861b81166034830152825160288184030181526048830184528051908601206001600160f81b031960688401529390951b9094166069850152607d8401919091527fd306a548755b9295ee49cc729e13ca4a45e00199bbd890fa146da43a50571776609d808501919091528151808503909101815260bd9093019052815191012095945050505050565b3b151590565b60025460009061091e9083906001600160a01b031661083f565b9050600080826001600160a01b0316630902f1ac6040518163ffffffff1660e01b815260040160606040518083038186803b15801561095c57600080fd5b505afa158015610970573d6000803e3d6000fd5b505050506040513d606081101561098657600080fd5b5080516020909101516002546dffffffffffffffffffffffffffff92831694509116915060009081906001600160a01b03908116908716106109c95782846109cc565b83835b915091506000821180156109e05750600081115b610a1b5760405162461bcd60e51b815260040180806020018281038252602a815260200180611064602a913960400191505060405180910390fd5b6000610aa8610a9b876001600160a01b03166354cf2aeb6040518163ffffffff1660e01b815260040160206040518083038186803b158015610a5c57600080fd5b505afa158015610a70573d6000803e3d6000fd5b505050506040513d6020811015610a8657600080fd5b50516127109063ffffffff90811690610f1116565b899063ffffffff610f6716565b90506000610abc828463ffffffff610f6716565b90506000610ae283610ad68761271063ffffffff610f6716565b9063ffffffff610fca16565b90506000818381610aef57fe5b049050610afd8a8a8d610cc9565b60025460009081906001600160a01b03908116908d1610610b2057826000610b24565b6000835b915091508a6001600160a01b031663022c0d9f83833060006040519080825280601f01601f191660200182016040528015610b66576020820181803883390190505b506040518563ffffffff1660e01b815260040180858152602001848152602001836001600160a01b03166001600160a01b0316815260200180602001828103825283818151815260200191508051906020019080838360005b83811015610bd7578181015183820152602001610bbf565b50505050905090810190601f168015610c045780820380516001836020036101000a031916815260200191505b5095505050505050600060405180830381600087803b158015610c2657600080fd5b505af1158015610c3a573d6000803e3d6000fd5b505060025460408051632e1a7d4d60e01b81526004810188905290516001600160a01b039092169350632e1a7d4d925060248082019260009290919082900301818387803b158015610c8b57600080fd5b505af1158015610c9f573d6000803e3d6000fd5b5050600354610cba92506001600160a01b031690508461074c565b50505050505050505050505050565b604080516001600160a01b038481166024830152604480830185905283518084039091018152606490920183526020820180516001600160e01b031663a9059cbb60e01b178152925182516000946060949389169392918291908083835b60208310610d465780518252601f199092019160209182019101610d27565b6001836020036101000a0380198251168184511680821785525050505050509050019150506000604051808303816000865af19150503d8060008114610da8576040519150601f19603f3d011682016040523d82523d6000602084013e610dad565b606091505b5091509150818015610ddb575080511580610ddb5750808060200190516020811015610dd857600080fd5b50515b610e2c576040805162461bcd60e51b815260206004820152601f60248201527f5472616e7366657248656c7065723a205452414e534645525f4641494c454400604482015290519081900360640190fd5b5050505050565b600080826001600160a01b0316846001600160a01b03161415610e875760405162461bcd60e51b815260040180806020018281038252602781526020018061101a6027913960400191505060405180910390fd5b826001600160a01b0316846001600160a01b031610610ea7578284610eaa565b83835b90925090506001600160a01b038216610f0a576040805162461bcd60e51b815260206004820181905260248201527f4445587377617046656552656365697665723a205a45524f5f41444452455353604482015290519081900360640190fd5b9250929050565b80820382811115610f61576040805162461bcd60e51b815260206004820152601560248201527464732d6d6174682d7375622d756e646572666c6f7760581b604482015290519081900360640190fd5b92915050565b6000811580610f8257505080820282828281610f7f57fe5b04145b610f61576040805162461bcd60e51b815260206004820152601460248201527364732d6d6174682d6d756c2d6f766572666c6f7760601b604482015290519081900360640190fd5b80820182811015610f61576040805162461bcd60e51b815260206004820152601460248201527364732d6d6174682d6164642d6f766572666c6f7760601b604482015290519081900360640190fdfe4445587377617046656552656365697665723a204944454e544943414c5f4144445245535345535472616e7366657248656c7065723a204554485f5452414e534645525f4641494c45444445587377617046656552656365697665723a20494e53554646494349454e545f4c4951554944495459a265627a7a72315820b787860d84e88114ad0a4864aba57adfa37836491d155e5e5b6860c1fd8b98c864736f6c63430005100032",
  "source": "// SPDX-License-Identifier: GPL-3.0\npragma solidity =0.5.16;\n\nimport './interfaces/IDEXswapFactory.sol';\nimport './interfaces/IDEXswapPair.sol';\nimport './interfaces/IWETH.sol';\nimport './libraries/TransferHelper.sol';\nimport './libraries/SafeMath.sol';\n\n\ncontract DEXswapFeeReceiver {\n    using SafeMath for uint;\n\n    address public owner;\n    IDEXswapFactory public factory;\n    address public WETH;\n    address public ethReceiver;\n    address public fallbackReceiver;\n\n    constructor(\n        address _owner, address _factory, address _WETH, address _ethReceiver, address _fallbackReceiver\n    ) public {\n        owner = _owner;\n        factory = IDEXswapFactory(_factory);\n        WETH = _WETH;\n        ethReceiver = _ethReceiver;\n        fallbackReceiver = _fallbackReceiver;\n    }\n    \n    function() external payable {}\n\n    function transferOwnership(address newOwner) external {\n        require(msg.sender == owner, 'DEXswapFeeReceiver: FORBIDDEN');\n        owner = newOwner;\n    }\n    \n    function changeReceivers(address _ethReceiver, address _fallbackReceiver) external {\n        require(msg.sender == owner, 'DEXswapFeeReceiver: FORBIDDEN');\n        ethReceiver = _ethReceiver;\n        fallbackReceiver = _fallbackReceiver;\n    }\n    \n    // Returns sorted token addresses, used to handle return values from pairs sorted in this order\n    function sortTokens(address tokenA, address tokenB) internal pure returns (address token0, address token1) {\n        require(tokenA != tokenB, 'DEXswapFeeReceiver: IDENTICAL_ADDRESSES');\n        (token0, token1) = tokenA < tokenB ? (tokenA, tokenB) : (tokenB, tokenA);\n        require(token0 != address(0), 'DEXswapFeeReceiver: ZERO_ADDRESS');\n    }\n    \n    // Helper function to know if an address is a contract, extcodesize returns the size of the code of a smart\n    //  contract in a specific address\n    function isContract(address addr) internal view returns (bool) {\n        uint size;\n        assembly { size := extcodesize(addr) }\n        return size > 0;\n    }\n\n    // Calculates the CREATE2 address for a pair without making any external calls\n    // Taken from DEXswapLibrary, removed the factory parameter\n    function pairFor(address tokenA, address tokenB) internal view returns (address pair) {\n        (address token0, address token1) = sortTokens(tokenA, tokenB);\n        pair = address(uint(keccak256(abi.encodePacked(\n            hex'ff',\n            factory,\n            keccak256(abi.encodePacked(token0, token1)),\n            hex'd306a548755b9295ee49cc729e13ca4a45e00199bbd890fa146da43a50571776' // init code hash\n        ))));\n    }\n    \n    // Done with code form DEXswapRouter and DEXswapLibrary, removed the deadline argument\n    function _swapTokensForETH(uint amountIn, address fromToken)\n        internal\n    {\n        IDEXswapPair pairToUse = IDEXswapPair(pairFor(fromToken, WETH));\n        \n        (uint reserve0, uint reserve1,) = pairToUse.getReserves();\n        (uint reserveIn, uint reserveOut) = fromToken < WETH ? (reserve0, reserve1) : (reserve1, reserve0);\n\n        require(reserveIn > 0 && reserveOut > 0, 'DEXswapFeeReceiver: INSUFFICIENT_LIQUIDITY');\n        uint amountInWithFee = amountIn.mul(uint(10000).sub(pairToUse.swapFee()));\n        uint numerator = amountInWithFee.mul(reserveOut);\n        uint denominator = reserveIn.mul(10000).add(amountInWithFee);\n        uint amountOut = numerator / denominator;\n        \n        TransferHelper.safeTransfer(\n            fromToken, address(pairToUse), amountIn\n        );\n        \n        (uint amount0Out, uint amount1Out) = fromToken < WETH ? (uint(0), amountOut) : (amountOut, uint(0));\n        \n        pairToUse.swap(\n            amount0Out, amount1Out, address(this), new bytes(0)\n        );\n        \n        IWETH(WETH).withdraw(amountOut);\n        TransferHelper.safeTransferETH(ethReceiver, amountOut);\n    }\n\n    // Transfer to the owner address the token converted into ETH if possible, if not just transfer the token.\n    function _takeETHorToken(address token, uint amount) internal {\n      if (token == WETH) {\n        // If it is WETH, transfer directly to ETH receiver\n        IWETH(WETH).withdraw(amount);\n        TransferHelper.safeTransferETH(ethReceiver, amount);\n      } else if (isContract(pairFor(token, WETH))) {\n        // If it is not WETH and there is a direct path to WETH, swap and transfer WETH to ETH receiver\n        _swapTokensForETH(amount, token);\n      } else {\n        // If it is not WETH and there is not a direct path to WETH, transfer tokens directly to fallback receiver\n        TransferHelper.safeTransfer(token, fallbackReceiver, amount);\n      }\n    }\n    \n    // Take what was charged as protocol fee from the DEXswap pair liquidity\n    function takeProtocolFee(IDEXswapPair[] calldata pairs) external {\n        for (uint i = 0; i < pairs.length; i++) {\n            address token0 = pairs[i].token0();\n            address token1 = pairs[i].token1();\n            pairs[i].transfer(address(pairs[i]), pairs[i].balanceOf(address(this)));\n            (uint amount0, uint amount1) = pairs[i].burn(address(this));\n            if (amount0 > 0)\n                _takeETHorToken(token0, amount0);\n            if (amount1 > 0)\n                _takeETHorToken(token1, amount1);\n        }\n    }\n\n}\n",
  "sourcePath": "/mnt/d/DxSwap/All-Contract/DEXSWAP/dexswap-core/contracts/DEXswapFeeReceiver.sol",
  "compiler": {
    "name": "solc",
    "version": "0.5.16+commit.9c3226ce.Emscripten.clang"
  },
  "schemaVersion": "3.3.4",
  "updatedAt": "2021-05-31T09:28:50.547Z",
  "devdoc": {
    "methods": {}
  },
  "userdoc": {
    "methods": {}
  }
}